:020000041000EA
:1000000000B5324B212058609868022188439860DF
:10001000D860186158612E4B002199600221596106
:100020000121F02299502B49196001219960352056
:1000300000F044F80222904214D00621196600F024
:1000400034F8196E01211966002018661A6600F04E
:100050002CF8196E196E196E052000F02FF8012189
:100060000842F9D1002199601B49196000215960AB
:100070001A491B48016001219960EB211966A021F2
:10008000196600F012F800219960164914480160C1
:100090000121996001BC002800D000471248134993
:1000A000086003C880F30888084703B5996A0420EC
:1000B0000142FBD001200142F8D103BD02B5186610
:1000C0001866FFF7F2FF186E186E02BD00000240BE
:1000D000000000180000070000035F00212200005C
:1000E000F4000018222000A00001001008ED00E03C
:1000F00000000000000000000000000074B24E7A12
:1001000000200420F7010010CB010010CD010010E9
:10011000C9010010C9010010C9010010C901001077
:10012000C9010010C9010010C9010010CF01001061
:10013000C9010010C9010010D1010010D301001045
:10014000C1010010C1010010C1010010C101001067
:10015000C1010010C1010010C1010010C101001057
:10016000C1010010C1010010C1010010C101001047
:10017000C1010010C1010010C1010010C101001037
:10018000C1010010C1010010C1010010C101001027
:10019000C1010010C1010010C1010010C101001017
:1001A000C1010010C1010010C1010010C101001007
:1001B000C1010010C1010010C1010010C1010010F7
:1001C000EFF30580103800BE00BE00BE00BE00BECA
:1001D00000BE00BEF2EB8871185E0110445E011093
:1001E0003802001090A31AE71E481F49086006C88D
:1001F00081F3088810471D480068002801D019487D
:10020000F3E70DA40ECC002902D000F012F8F9E7B4
:100210001749184A002000E001C19142FCD116495B
:100220008847164988471649884700BEFDE701C937
:1002300001C29A42FBD37047445E0110C000002007
:1002400044190020C876011000000420000004209A
:10025000C8760110001004200010042000000000E7
:10026000704700000000000008ED00E0000000D032
:1002700044190020A03000207D530010CD0B001049
:100280003D530010F8B5C04606480749091A8B10BF
:10029000C90FC91810B5491003D0044B002B00D06A
:1002A000984710BD441900204419002000000000A8
:1002B000054B10B5002B03D00449054800E000BFF2
:1002C000FFF7E2FF10BDC046000000002430002010
:1002D000F01C0110F0B54E46DE4657464546E0B5E7
:1002E0001F001823994604008DB0814488461600EB
:1002F00049460822684603F017FB2000226963691B
:1003000008F068FC002800D0F7E0002F00DAECE0ED
:10031000169B002B03D01A00DB680133D3604346E1
:10032000002B00D1F9E01B7F002B04D143461A6A51
:100330005B6AB6185F41494608AD082268460296D6
:10034000039703F0F1FA22692800636908F0AAF91B
:10035000089B200005936B689B46AB689A46434612
:100360009B6A07934346DB6A069308F0D1FC169A12
:100370003023C26142468261D35C8146002B55D155
:10038000069B002B63DB43461B7F002B17D14346A4
:10039000986BD96B002803D180231B0699420ED09D
:1003A000079A069B08F018F907000E00594500DD72
:1003B000BBE000D1B5E0059BBB4200D1C3E0059B8B
:1003C000210008935B466B6053461022103168464B
:1003D000AB6003F0A9FAEB686968AA68089808F0AE
:1003E00043F943425841824453461022290048466B
:1003F000AB6003F099FA082268460AA903F094FA60
:100400002000089A6B6808F0E5FB002865D140469B
:1004100010222900383003F087FA4946A06C0AF010
:1004200099F8606F431C6FD463674FE008F09CF944
:1004300080197941236A0593636A9B46994266DD78
:100440008B46059000239A46069B002B9BDA5A4662
:100450006A605246059B2900AA604846102208930C
:1004600003F062FA4946A06C0AF078F80028A6D09A
:10047000059B56464F46994601364B462B605B46D8
:100480001022290038006B60AE6003F04DFA39008D
:10049000A06C0AF063F801360028EED10822684605
:1004A0000AA903F041FA2000089A6B68B94608F0DF
:1004B00091FB002811D1404629001022383003F06A
:1004C00033FA3900A06C0AF045F800200DB0F0BCFA
:1004D000BB46B246A946A046F0BD169809F016FBE9
:1004E0004946200008F00CFDEFE732003B00384899
:1004F0000AF060F9002600270AE7169809F006FBC3
:1005000034480AF057F9E0E701236367DEE79942D0
:1005100098D1059B984295D992E7169809F0F6FA7A
:10052000D3E7059B984200D845E748234246D35C71
:10053000022B2AD0032B0FD0012BCED00023B346A1
:100540009A4605973BE7B34500D038E7079B069AE4
:10055000134300D033E7E8E7200008F0D9FB434617
:100560004146060010228361383103F0DDF9310085
:10057000A06C09F0F3FF011E02D0A06C09F0FAFF95
:100580003100200008F0BCFC19E7200008F0C0FB97
:1005900042464146824682613831102203F0C4F956
:1005A0005146A06C09F0DAFF00280BD0169908F02C
:1005B000B5FC4946200008F0A3FC5146200008F095
:1005C0009FFC82E75146200008F09AFCB6E7C0463F
:1005D000181D0110F01C011070B505004023012208
:1005E00004001835C254280009F0CCFB636A002BC4
:1005F00005D001222800216C09F0BCF9606270BDB1
:100600009C23C358F0B5DE469B46F423C358574697
:100610009A46AA234E4645465B0099462C33984697
:10062000E0B5436C83B08144050004008044986ABF
:1006300003F092F82F4F304E3A00009001911121B3
:10064000300004F0CBFD5B46986A03F085F82B4F31
:10065000009001912A4A1121380004F0BFFD294B76
:10066000AD359B465346986A03F076F8264A0090CB
:1006700001911121584604F0B1FD4B4648469E6257
:1006800009F080FB4B46DB68FF35002B08D0BE230A
:100690005B00E1580122484609F06CF94B46D860EE
:1006A000434640469F6209F06DFB4346DB68002BE2
:1006B00008D0D4235B00E1580122404609F05AF9E2
:1006C0004346D8605B462800AB6209F05BFBEB68F1
:1006D000002B07D0EA235B0001222800E15809F033
:1006E00049F9E86003B0F0BCBB46B246A946A04653
:1006F000F0BDC046601D0110502700206427002077
:10070000681D011078270020701D0110F0B5BE2073
:10071000C646800000B508F0E7F902235B42984620
:100720004246F0275333FF33C250F033C118A93B80
:10073000FF3BC150030080250024BC469833C365AD
:100740002D06183B1C605D600023844466468A3297
:100750008350873A0266C1513C3FC6510700D837E3
:100760003C607D60E027C351283FC2519037C151A2
:10077000070086214937FF374900475001003131D2
:10078000FF310C604D609C2146464900435028399A
:100790004250C831465010314350E3361B49FF36B2
:1007A0008151F2219027490040504031435004319B
:1007B00043501749543681510436835110368251C3
:1007C000144EBF00C6519126B60080514036835169
:1007D000043683510C368151A621890043504118BB
:1007E0000C644D64B821890043500100BC23E13101
:1007F0009B00FF31C150C1183C3BC1500433C25073
:100800000433C25480BCB846F0BDC046D9050010C0
:10081000781D0110010600107C23F0B5CE46474636
:10082000984680B507000400050085B001AE310090
:1008300080441D480AF032FE019B4C376367380044
:1008400009F0A0FAA36DAC35002B05D001223800C9
:10085000616F09F08FF8A065A42399464A4688275E
:1008600073684046A35009F08DFAE359002B06D077
:100870004B4601224046E15809F07CF8E051B3684C
:100880002800AB6209F07EFAEB68002B06D0D42377
:1008900001222800E15809F06DF8E86005B0C0BCFD
:1008A000B946B046F0BDC04610300020054B10B52B
:1008B0001A78002A00D010BD013203481A700AF0DD
:1008C000A3FDF8E79230002010300020942070B58E
:1008D000800008F009F9030020338361E822002337
:1008E000E02140648350274AA4244250E422A025FA
:1008F0008050403283502449043283500C3281505E
:1009000004328350383AFF3A640002511F4C6D00A4
:100910004451A22464000051403403510434035173
:100920000C340151CC21040049004350E0345831CB
:100930004450010080250024D9312D06FF310C6080
:100940004D600600F021F13649004350FF362C3946
:100950004650043142500431435441184C678D676E
:100960008E21890043500100922341319B00FF31C9
:10097000C150C1183C3BC1500433C250183BC25057
:1009800070BDC046AD080010781D01101908001098
:100990008023F0B58769C5583433C4583B7DC66C95
:1009A00083B0002B0CD1337D002B1AD12B7D002B73
:1009B00028D1237D002B36D10AF07AFC03B0F0BD9C
:1009C0000023802200210020009310330AF0C8FB8E
:1009D000012300220021B86A0AF06CF9337D002B54
:1009E000E4D00023802210210020009310330AF06D
:1009F000B7FB012310220021B06A0AF05BF92B7DBE
:100A0000002BD6D000238022202100200093103319
:100A10000AF0A6FB012320220021A86A0AF04AF965
:100A2000237D002BC8D0002380220093302100209A
:100A300010330AF095FB012330220021A06A0AF04E
:100A400039F9B9E7084B10B51A78002A00D010BD63
:100A500001321A700AF0ACF804480AF0A3F800203A
:100A60000AF0B2F8F3E7C04691300020383E01109A
:100A7000F0B5D820C646800000B508F035F8030070
:100A80002033836102003433C3648023883240649E
:100A90008067C2502C33C05034320833C2502C33DC
:100AA000C050F0220023E8218350454AA824425038
:100AB000EC22A425805040328350424904328350B6
:100AC0000C32815004328350403AFF3A64000251A4
:100AD0003D4C6D004451A624640000514034035144
:100AE000043403510C340151D02104004900435017
:100AF000E83458314450010080250024E1312D06AE
:100B0000FF310C604D600600F421F9364900435076
:100B1000FF362C39465004314250043143544118B9
:100B20004C678D67902189004350B03E103146508C
:100B300047183C3947500431802742500421BF00F8
:100B4000C1519037C7193C607D60A627BF00C351D3
:100B50001037BC46844488466146C6513C3FC1516B
:100B600041460437C251183FC151BA218900471884
:100B70003C607D60BC27BF00C3511037BC46844435
:100B80006146C6513C3FC15141460437C251183FEE
:100B9000C151D021890047183C607D60D224A40057
:100BA0000351D6239B00C650C4183C3BC4500433A9
:100BB000C2504246183BC25080BCB846F0BDC04649
:100BC000450A0010781D01109109001010B5002190
:100BD000002009F0FBF910BD7047C046002210B597
:100BE00007240A4B8AB01B68089207920692059266
:100BF0000392029202320192013A009204490022C9
:100C00000494044809F016F80AB010BD40220020F0
:100C10007C1D0110C81A0020014B036001207047A1
:100C2000C81A0020F0B5DE4657464E464546E0B5A8
:100C300089B0FFF76BFDF64B040083609946B02343
:100C40009B00C3180021002018605960B2230021C6
:100C5000F0489B00E31818605960A8224B469200A8
:100C60009B6FA2181A6000239A46BB235246802726
:100C700000269B00E250D43B3F06E3181E605F60F5
:100C80009E239B00E3181E605F60FFF71FFE4B462C
:100C9000836002235B429B465A468367AA33C25055
:100CA0003033C2505B46C2614A468233D358020099
:100CB000E0321A60383216605760166657660500D3
:100CC0006032FFF7D5FE4946842381605946C161F1
:100CD0000165C1503433C1504946383BCB580200FE
:100CE0000100E83221315A60FF31CB4B0E604F607A
:100CF0000E664F66E36080230127603151469B00FA
:100D0000804661612200E7500431012007F0CEFEE9
:100D1000832189006050220004210120822607F0EF
:100D2000C5FEB600A05122000421012007F0BEFE3E
:100D30002C2294468123A44462469B00E05002602A
:100D400003205C330192E05022000421834607F027
:100D5000ADFE9B239B00E05022000421032007F0FE
:100D6000A5FE6036A05122000421032007F09EFE5C
:100D7000B421992349008C469B00E050A444D03B09
:100D80006146E0229C465200A44463469446A44433
:100D9000624643600393A14B01608260EB60802355
:100DA00050465B006C61E85058466033E850029151
:100DB000049204212A0007F079FEB6225200A850BE
:100DC00004212A00032007F071FEB42149008B465C
:100DD000685065392A00FF39032007F067FE60215B
:100DE000B2238C465B00E850AC44D43B61469C4641
:100DF000AC44634643600693C0239C46AC446346C0
:100E00000160836040460793854B0591C36084234E
:100E100051465B004461C1505946534643508220BD
:100E20007533FF33A763E463E7500433E45028339A
:100E3000E7500433E4502833E75080000433E45093
:100E40002358653922001F60FF39012007F02EFE6C
:100E500083218900635829001860F931A359FF31B3
:100E6000016022001F600421012007F01FFE9B2368
:100E70009B00E35822001860A35904215F60012001
:100E800007F014FE9B239B00E35822005860A359EF
:100E900004219F60012007F009FE9B239B00E3587B
:100EA000683E1A6846449860166096265B68B600ED
:100EB00046441E60AC26B60046440660A0239C262D
:100EC0005846EF662D67AF51ED502C33EF50043389
:100ED000ED502B5868382A001F600421FF3807F0B6
:100EE000E5FDB6225200AB580421186058462B5835
:100EF00068382A005F60FF3807F0D8FDB62252003C
:100F0000AB580421586058462B5868382A009F6017
:100F1000FF3807F0CBFDB62227005200AB58483708
:100F20001A6898605B68176058371F605837076009
:100F300020001830A8612800F4234C306064303061
:100F4000A0513030E05020005530FF3003004046C3
:100F5000836120008130FF3003004046C3642000DD
:100F6000AD30FF3003008022404683504846036D79
:100F70000120019A02991A60039A59609A60049AB2
:100F80000599DA60069A19615A61079A25499A61AA
:100F90004042002208F058FC2300F133FF33186070
:100FA0005960012002221F49404208F04DFC942361
:100FB0009B009C4664442060616001200022194926
:100FC000404208F041FC2B00F033186059600120CA
:100FD00001221449404208F037FC5135FF352860A2
:100FE0006960012000220F49404208F02DFC434671
:100FF000F83318605960012003220A49404208F082
:1010000023FC43465933FF331860596009B00BE0A5
:10101000C81A002080B2E60E981D0110B01D011004
:101020001C1E0110FFFFFF7FF0BCBB46B246A94665
:10103000A046F0BD7047C046094A83009A1810B513
:1010400014684022544080322240064CC000A4461E
:1010500063441A60044B9C466044416010BDC04626
:1010600004C0014004D0014000400140074B800013
:10107000C3181B68C90092000A435A400C2313404E
:10108000034A9446604403607047C04604C0014070
:1010900004D001400123D022834012069362936161
:1010A000094A83009A1811684022514080320A4050
:1010B0000649C0008C4663441A60054B9C460523D4
:1010C000604443607047C04604C0014004D0014002
:1010D000004001408023DB051868000F7047C046C0
:1010E0000FB400B5084883B004F01AFB049B002B32
:1010F00007D005A91800019104F0B6F8034804F0E0
:101100000FFB012004F0C8F8B41D0110702201107B
:1011100070B5EFF3108C72B60D4D2B68002BFCD020
:10112000BFF35F8F0724CB08C618C05C01230C40B7
:10113000A3401C000440034207D118433070BFF3A2
:101140005F8F2C608CF3108870BD1000FFF7C8FF14
:101150002C0100D0F8B54746CE46884680B5EFF35F
:10116000108C72B61C4D2C68002CFCD0BFF35F8F26
:101170009A4222D807210126894602E00132934291
:1011800018D34D4637001540AF40D4080119045D0F
:101190002742F3D110003C430C70BFF35F8F002255
:1011A0000D4B1A608CF3108800280EDBC0BCB946CA
:1011B000B046F8BD01204042EFE7BFF35F8F002348
:1011C0002B608CF31088012040424346002BEDD069
:1011D0000898FFF785FFC0462C0100D0044A10781C
:1011E000431CDBB2172B00D9102313707047C04685
:1011F0001811002010B5064B064C82B00100009378
:1012000018221F232000FFF7A5FF02B010BDC04623
:10121000C41D01109C2700200021044B044ABFF389
:101220005F8F02C39342FAD17047C046000100D0DD
:10123000800100D0054B064A1360064A13605360D4
:101240009360D360136153619361704780808080A5
:1012500000E400E004E400E01F2318401E3B83404C
:10126000002905D0C021044A49005350136070473B
:10127000802201498B50FAE700E100E00122824020
:10128000034B1B6813405A1E9341D8B27047C046A7
:1012900000E100E001238340014A13607047C0462B
:1012A00000E200E0064B10309B688000C358054AFE
:1012B00000209B1A2F229A424041C0B27047C0467C
:1012C00000ED00E01C11002070B50D00EFF310865A
:1012D00072B60F4A1368002BFCD0BFF35F8F0D4B23
:1012E00010309B6884001B590B4A934203D09D42E7
:1012F00001D001F01DFA074B9B681D51BFF35F8FB2
:10130000BFF35F8F0022024B1A6086F3108870BD16
:10131000240100D000ED00E0C1010010F0B55746F7
:101320004E46DE464546E0B585B006000091170002
:10133000EFF3108B72B66A4A1368002BFCD0BFF330
:101340005F8F0025674B5D579A46002D00DAA9E0B4
:101350006B00654C01935B199B009846A146C14404
:101360004B4652469B7910361370604BB6009B6813
:1013700099590B1B2F2B33D95D4B994200D0ACE010
:10138000019B42469C465B4B6544AD0063535A4B00
:101390000232A218043B9B1A1B05584A5B0D6519C3
:1013A00013436B80564B0121AB80FF23AB71009B35
:1013B000EF71AB604B460B4319004C4B9B68995146
:1013C000BFF35F8FBFF35F8F0022454B1A608BF333
:1013D000108805B0F0BCBB46B246A946A046F0BD99
:1013E00001200A008243D3798C46BB4231D845465E
:1013F000130044491B1B5B415943090D3D4B63538B
:101400003D4B02356519043B5B1B1B053B4D5B0DDA
:101410002B43AA464D466B800425AC465546E04416
:10142000131F44441B1B1B055B0D1D434B46997149
:1014300000999D8099604946DF71334B01431360E9
:10144000BBE75800C01880002018C179B9422FD9D5
:1014500002000623D356002BF3DA02932B4B61468E
:101460000393131D9A4604235B429C46E144504675
:101470004B461B1A1B055B0D9C46204B95719846ED
:101480006346404603439380019B5A199200039B95
:10149000A418A380029B1C4AA371009B2260E771E1
:1014A000A3608AE701F044F9002553465D574FE7F2
:1014B000908802934005131D9A46031561469C4689
:1014C0004046D444634604302018181AE02300052F
:1014D000400D1B0218430390C5E701F029F94FE7BF
:1014E000240100D0973000201C11002000ED00E006
:1014F000C101001000A1FFFF4C11002000E0FFFF20
:1015000001BDFFFFAAAA00000148804701BD0000FD
:10151000F0B5DE4657464E464546E0B50C0083B072
:10152000EFF3108872B6634A1368002BFCD0BFF348
:101530005F8F614B61499A68030010339F00D55952
:1015400001938D4243D0A54254D05D4EAA1B2F2A51
:101550003DD85C4B9B461B68994601231A009C466C
:1015600082404B4613401F229946634602409340F7
:101570009A4680225B4650469850BFF35F8FEFF348
:1015800005839B46002B37D0019B5B4501D001F0C2
:10159000CFF801232A009A439068844208D176E06C
:1015A0004B005B189B00F3189868844236D01A00F1
:1015B000062151560029F3DA844254D04B46002BC1
:1015C00027D0C02251463F4B5200995019603A4BE8
:1015D0009B68DD51BFF35F8FBFF35F8F0022354BF8
:1015E0001A6088F3108803B0F0BCBB46B246A94627
:1015F000A046F0BD0D00EAE72A0063469A439068D2
:101600008442D5D106201056130000280ADA0D00B6
:1016100031E0802351462B4AD150D8E70620185696
:10162000002821DB42001118890074188B46A1683C
:101630009960E179D971062161569971002924DBFD
:10164000A488F11A640524155C44091909051E4C87
:10165000490D2143998013181C4A9B001178F318F7
:1016600099711070AAE713005946002914D1FF316F
:1016700091711749918015490A789A71154A9B1BF7
:101680005B415A43120D0A7098E71149E2E70620C0
:10169000105613000028C5DA0F4A1049D21A083A2A
:1016A0005002400D014399800D4952080A43DA80E7
:1016B00084E7C046240100D000ED00E0C101001025
:1016C0001C11002000E100E000E0FFFF9730002047
:1016D00001BDFFFFAAAA00005611002000F0FFFF85
:1016E00000F8FFFF70B501240443EFF30581EFF329
:1016F000108C72B6214A1368002BFCD0BFF35F8FA9
:101700001F4B05001F4AED1A6D416A43120D1E4D15
:101710008900AE6852B27658A6421CD006215956AE
:1017200091421CD012215956914222D01E21595665
:10173000914220D02A2159560324914210D0134BB4
:1017400019781A708171BFF35F8F00220B4B1A60FA
:101750008CF3108870BDAB680D4C5C50EFE7002433
:101760006100091989005B18FF2199710949998065
:10177000E5E70124F4E70224F2E7C046240100D0A3
:101780001C110020AAAA000000ED00E09730002004
:10179000C101001001BDFFFF10B5084B084C82B01D
:1017A00001000093002205232000FFF7D3FC00284E
:1017B00001DB1F23181A02B010BDC046E01D011046
:1017C0009C30002070B504000E001500FFF706FDE8
:1017D0000100200000F006F8A680E580BFF35F8FCF
:1017E00070BDC046024B9C46614489000160704751
:1017F0004000003470B5114C114DAC420FD2FF26A1
:101800002368002B0CD0FFF7E9FC01002000FFF754
:10181000E9FFA680BFF35F8F0834AC42F0D370BD00
:10182000FFF7DCFC01002000FFF7DCFF2671BFF3AF
:101830005F8F0834AC42E3D3F1E7C046341900208F
:101840004419002010B50400FFF7C8FC0100200077
:10185000FFF7C8FFFF232371BFF35F8F10BDC046A2
:1018600010B504000120FFF7C5FC034BC3189B0013
:101870002360BFF35F8F10BD40000034034B9C46D4
:10188000614489000160BFF35F8F704740000034FE
:101890000A4B1968EFF3108072B60A68002AFCD070
:1018A000BFF35F8F1B68BFF35F8F00221A6080F366
:1018B000108840BF002000217047C04664300020DF
:1018C000F0B5DE4657464E464546E0B587B0EFF3E5
:1018D0000583032201251A40954091008846A946B8
:1018E000B34B03925C58B34B1D60B34B04934B4610
:1018F000B24843630823E55E002D37DAA3881BB2A4
:10190000002B00DBADE0A379002B00D0EEE0082334
:10191000E05E002820DB430062691B18DB00D3185F
:101920009E68DD68731C00D111E1A44801004144A8
:10193000826A0B69B71A9B1A9F4215D30123026A68
:10194000039883401A420FD09C4800F015FC8D424A
:1019500002DCCCD18642CAD940BF07B0F0BCBB463E
:10196000B246A946A046F0BD0E61EDE762696B0084
:1019700092465B19DB009A4453469E68DF6800F08C
:10198000FBFB8F42BADC00D103E1002F00DAE8E074
:101990005246534652691B699346049A934200D1BA
:1019A000D9E052460821605E52880004594610432F
:1019B0009847009001910099019A0B001000134381
:1019C00000D1CEE013000A00B61A9F41002806DBC2
:1019D0007A4800F0D1FB009E019F36184F415346D4
:1019E0009E60DF6000229A5E002A00DA86E75300DC
:1019F00099186069C900411802938B68C9689B46B1
:101A0000B94200DD7AE702D1B34200D976E7082374
:101A10009C46A444059565462281A446029B2C0061
:101A200006E053009918C90041188D68C968AB4693
:101A30009B18DB00C318B94206DC00D1B3E01C00E0
:101A40000023E25E002AECDA230064469C465346FB
:101A50001A806346059D1D80A3881BB2002B00DA07
:101A600051E72269EFF3108172B61368002BFCD0A6
:101A7000BFF35F8F0123A7885B42A3803FB2236936
:101A8000BFF35F8F00221A6081F31088002F00DA05
:101A900039E72300083322009A4666697B00DB1988
:101AA000DB00F318996850468C460824115FDD6806
:101AB000002910DB029306E0AB4244D00023E15E34
:101AC0002000002906DB4C006418E4003419E368A8
:101AD000AB42F1DD029B078000201F5E1980002FC2
:101AE000DCDA1400A379002B00D110E70023A371E6
:101AF00026000823E15E08364B1C00D12CE70800C5
:101B0000A246656902E03E004B1C1AD04B005B18F0
:101B1000DB00EF180A008C46E95E7B881BB2002BC5
:101B2000F1DA01235B42DC17BB60FC60824205D026
:101B3000534631801B893B8053461A8160464B1CBB
:101B4000E4D15446E5E6A3686345B7D9C2E76B1C08
:101B500000D0EAE6F8E65B4658461B69984700283D
:101B60001BD153461B8822692381EFF3108372B681
:101B700011680029FCD0BFF35F8F514662880A804C
:101B800022696580BFF35F8F0021116083F31088A5
:101B9000B4E6864200D8F8E6B0E65B461A685B68B1
:101BA0000092019307E7B34500D848E74CE7C046E9
:101BB000443000203C700540C11800100040054032
:101BC00070B52E4C2569002D04D00A212C48FFF752
:101BD00009FE70BD2B4E0321300000F0C3FAE66011
:101BE000FFF7FCFA284B03229C46D02322701B06E9
:101BF0001B6801216370254B6044A3600F238000A4
:101C000020610220638063694942A180198002310A
:101C1000198647311D83585218315A5275325C3932
:101C200099521832013199521832013199521832B1
:101C300001319952083518329D52023118329952A9
:101C4000183201319952183201319952183201314A
:101C500099521832013199521832013199520C4B74
:101C60000C49DC6001303562FFF72EFB01210320B7
:101C7000FFF7F2FA084B1D60A7E7C0466411002089
:101C8000643000200040054040000034FFFF100099
:101C900044300020C11800103860054000487047EB
:101CA00064110020F8B51F0008AB1B780400160073
:101CB000002B08D100F068FA32003B00121A8B4169
:101CC000002B00DA52E02269EFF3108072B613683D
:101CD000002BFCD0BFF35F8F0223E15E63694A00F3
:101CE0005218D2009B182269002936DB1D886580B6
:101CF000BFF35F8F0025156080F31088069A9E6001
:101D0000DF601A61079A5A615A8801325204520CF4
:101D1000101C002A1FD082B2588008041043266984
:101D2000EFF3108772B63268002AFCD0BFF35F8FE2
:101D3000A2881A80A1802369BFF35F8F00221A60F6
:101D400087F310880A4923788C4601329A40E36869
:101D500063441A60F8BD0120DDE7BFF35F8F002305
:101D6000136080F3108801204042F3E70020F1E780
:101D70003C20000070B501000469EFF3108C72B6CE
:101D800020680028FCD0BFF35F8F02200D5E4C69F5
:101D900068004019C00024180869002D36DB268829
:101DA0004E80BFF35F8F002606608CF31088E360DF
:101DB00063880498013320615B0405985B0CA26082
:101DC00060611A1C002B1FD093B228046280184354
:101DD0000A69EFF3108C72B61368002BFCD0BFF3C6
:101DE0005F8F8B8823808D800B69BFF35F8F00220C
:101DF0001A608CF310880B7801329A40CB6808493E
:101E00008C4663441A6070BD0122DDE7BFF35F8F2B
:101E1000002303608CF3108801204042F3E7C046A2
:101E20003C20000010B543890A1493421ADD530088
:101E30009B184269DB00D3180469EFF3108C72B66B
:101E40002268002AFCD0BFF35F8F5A88090494B23D
:101E5000090C8A4208D00369BFF35F8F00221A6021
:101E60008CF31088002010BD8022120214435C8085
:101E7000012302698371BFF35F8F002111608CF32E
:101E80001088044902788C469340C268012062445D
:101E90001360E8E73C20000040787047F0B506008A
:101EA0000F0006246442E517C646A4197D4100B51B
:101EB00082B08D4214D811D000F066F922002B00B8
:101EC000121A8B41002B15DC002B44D03000390056
:101ED00000F098F902B080BCB846F0BD8442EBD95E
:101EE0000024002500F050F922002B00121A8B412B
:101EF000002BE9DD00F048F922002B00121A8B417B
:101F0000002B0ADB00230193144B2200009314489A
:101F10002B00FFF72FFF0130D8D0A0462900002466
:101F2000104A1148536A994204D8956A4545CDD262
:101F30009942CBD10568EFF3108C72B62B68002B59
:101F4000FCD0BFF35F8F0368BFF35F8F1C608CF31F
:101F5000108820BFE6E7002AB8D0CBE79118001020
:101F6000641100200040054064300020F0B5C646F2
:101F700000B582B004000D0000F006F924184D41B0
:101F8000002D02DA01242F4D644206267642F7170F
:101F900036196F41AF4214D811D000F0F5F8320075
:101FA0003B00121A8B41002B15DC002B46D0200081
:101FB000290000F027F902B080BCB846F0BDA64267
:101FC000EBD90026002700F0DFF832003B00121AA0
:101FD0008B41002BE9DD00F0D7F832003B00121AEC
:101FE0008B41002B0ADB00230193174B3200009337
:101FF00016483B00FFF7BEFE0130D8D00023390061
:10200000B0469C46124A1348536A994204D8966ACD
:102010004645CCD29942CAD10668EFF3108772B612
:102020003368002BFCD0BFF35F8F0368BFF35F8F73
:1020300066461E6087F3108820BFE5E7002AB6D009
:10204000C9E7C046FFFFFF7F911800106411002010
:102050000040054064300020F0B557464E46DE464D
:102060004546E0B506000F0085B0EFF305839946BD
:102070008B46002B12D0384900204B6ABB4206D356
:102080008A6ADB1B591E8B41B2424041184305B09E
:10209000F0BCBB46B246A946A046F0BD2F4B9A46BF
:1020A000DB68984653461B784046039300F064F87B
:1020B0004246039B040004339B009B580D001B1AEF
:1020C00039003000001BA941894510DC0DD020BF2C
:1020D000214A0020536A5B45D9D3926ADB1B591E03
:1020E0008B41B24240411843D1E78342EFD900F01F
:1020F0004BF832003B00121A8B41002B1ADB0023F5
:102100000193174B3200009350463B00FFF732FE1D
:10211000011E0FDD104B5A6A5A451BD39B6AB3420E
:1021200016D35046FFF77EFE0B4A0020536A5B45EC
:10213000ADD3D2E7084A0020536A5B45A7D30020FD
:10214000926ADB1BB24240415A1E934118439EE7FC
:102150005A45E6D120BFE4E7004005406411002065
:102160009118001010B5024A0248FEF7D1FF10BDC9
:10217000FC1D0110A02700200300416A0A00986A94
:10218000596A8A42FAD17047034B596A0A00986A21
:10219000596A9142FAD170470040054070B5040079
:1021A0000D00174A536A1900966A536A8B42FAD196
:1021B0003000190024184D41AB4216D813D0104BF3
:1021C0002A005B6A9D4203D90D494B6A9342FCD3B6
:1021D000934207D10A4A02E0516A994202D1916AB8
:1021E000A142F9D370BDA642E9D9054B5B6A1C0038
:1021F0005A1CEFD0012201246442E5175242E3E762
:1022000000400540064A536A9942FCD807D1044B66
:1022100002E05A6A914202D19A6A9042F9D8704714
:1022200000400540F8B5040006200D0000F078F9E4
:10223000002844D0374B3849E3185A1E9341802276
:10224000120494465B429B0D344A9B056344136021
:10225000334A136018000A689043FBD12D4B314A72
:10226000E31859424B4180215B00490006209952F6
:1022700000F056F92900C00000F0ACFB0130C309A2
:102280001ED1402701226262A362266BF30722D48B
:10229000E36A254B0620E51800232B60266300F037
:1022A0003FF93900800000F095FB7023E26A5A4044
:1022B0000E3313402B601D4B23630323A364F8BD2F
:1022C0001B4A93421ED900231A4A1B4F6262A36223
:1022D000266BF307DCD5194B144AE3181A60656ABC
:1022E000A36A0620AD01ED1800F01AF9144900F0B8
:1022F00071FBAD020100280000F06CFB0021FFF72C
:102300004DFFC5E74006800E9F011A003F180300ED
:10231000B9E7C0460080FCBF08C0004000E00040B4
:1023200000F00040703000202C100000010300007D
:10233000FEFF0000FFFF0000C0FF3F003030000044
:102340004E0E0000F8B5DE464E4657464546E0B50F
:102350008B4605000A991800160000F03BFB0A9B0B
:102360006C001F02324B64199C46A40064446368ED
:1023700081469F4200D967602B1FDBB29846012B34
:1023800030D9C02380229B01E31812011A60294B27
:10239000AD0059599A4600291BD17301E0262268E5
:1023A00053401E40802342465B01E3181E60012A11
:1023B00030D9802380229B01E31812011A60534612
:1023C0004A4667605A51F0BCBB46B246A946A04691
:1023D000F8BD586900F0FEFA013043001B18033BBA
:1023E000FDD2DAE75B46012BCBD1C02303229B0150
:1023F000E3181A60023AA3681A42FCD07301E0267F
:102400002268AD0053401E4080230A4A5B01924679
:10241000E3181E605A462168514003220A401A60A0
:1024200001225B469A40A3681A42FCD0C1E7C0462D
:1024300000800040A4270020F0B546464F46D6460F
:10244000C0B51F00344B44009C462418A4006444CB
:10245000636888461600FF2B02D880235B00636008
:10246000031FDBB29A46012B30D9C02380229B0187
:10247000E31812011A60294B850059599946002921
:102480001BD17301E026226853401E408023524630
:102490005B01E3181E60012A30D9802380229B0152
:1024A000E31812011A6080235B0063604B465F51A2
:1024B000E0BCBA46B146A846F0BD586900F08AFAB9
:1024C000013043001B18033BFDD2DAE74346012BE2
:1024D000CBD1C02303229B01E3181A60023AA36800
:1024E0001A42FCD07301E0262268850053401E404A
:1024F00080230A4A5B019146E3181E604246216828
:10250000514003220A401A60012342469340A268C8
:102510001342FCD0C1E7C04600800040A427002041
:10252000014B8000C0587047A4270020F8B5040074
:1025300021481E0017000D0000F04CFA0100380081
:1025400000F048FA069B36041B031E432368002B49
:1025500020DB1A4B1A49E3185A1E9341802292013C
:1025600094465B421B0B174A1B0363441360164AD5
:1025700013601F000A689743FBD1144B2560E218D3
:102580002123A06013602368002BFCDA0823E66097
:102590001360F8BD3F2322681340AB42D9D1A36832
:1025A0001B051B0D8342D4D1EE22E368D2021340F7
:1025B000B342CED1EDE7C046001BB7000040FDBFDF
:1025C00008C0004000E0004000F00040043000007F
:1025D00010B580241C4BE4051C6000281AD0012390
:1025E0001A4C18431A4BDC611A4C44401C62596265
:1025F00098628021144BC905196017481749086073
:10260000E021C9041960002A07D18022144B120668
:102610001A6010BD0E4BD861EBE753019B1A9B006B
:102620009A18802312015B049A4209D213000D49C3
:102630000B60074B5A608022094BD2051A60E8E70D
:10264000094B1A00F3E7C04600B00540D3C007B0FD
:10265000008005402D3FF84FFCFF0100082001409D
:1026600000A005401C300020FFFFFF008023024A2D
:102670009B000B43D362704700800540002310B5D8
:102680000100988A1B8B984710BDC046162310B5D1
:102690000100188802331B88984710BDF8B54746DB
:1026A000CE4680B50F1E18D014239946043304007B
:1026B0000025012698464B461888434621681B880A
:1026C000984701C4431E984101350640AF42F2D1FC
:1026D0003000C0BCB946B046F8BD0126F8E7C04698
:1026E000002370B504000D00988A05491B8B98479C
:1026F00003000020002C01DB0130A0402900984796
:1027000055420000AA23064A1B0113608D235B007B
:10271000D3600449044B19605368002BFCDA7047FE
:102720000040024000B0FA00006002407047C0461E
:1027300010B50148FEF7D4FC201E011070B5074DFE
:10274000074EB54209D20024013E761BB60808CDDB
:10275000984723000134B342F9D170BDA81C011081
:10276000E41C0110054B064A06491A60064A074B4D
:102770001A6010000B689843FBD1704700E00040DE
:10278000BFCDFBFE08C00040FE7F3C0000F00040D3
:10279000044BDB6C002B03D18022034BD2021A6066
:1027A0007047C046000011504C201150044A054BA0
:1027B0001A60054A1368DB018033FBD17047C046BD
:1027C000FFFFFF0100F0004008C000404022034B23
:1027D0009A675A671A67DA667047C04600F0014088
:1027E00010B5FEF719FD10BDF8B52749274C284D47
:1027F000641AA6103200302E00D930222800920030
:1028000001F092F8BC2C3BD830202F232C19640700
:10281000204A801BE40F9B1B052B16D93700002C88
:1028200002D0B300771CEA50001B33199B0041080B
:10283000EB18C900C9181A605A6008339942FAD1D6
:10284000012303421CD09843C619B300EA50731CFD
:102850002F2E15D09B00EA50B31C2E2E10D09B00BB
:10286000EA50F31C2D2E0BD09B00EA50331D2C2E6A
:1028700006D09B00EA50731D2B2E01D09B00EA501E
:10288000054B9D60F8BDC04600010010C00100105E
:1028900000000020C101001000ED00E0002310B591
:1028A000294C82B0A367FFF72DFF0122274B1A6046
:1028B000636C012BFCD10322254B1A60224A936BD7
:1028C000012BFCD1013300930121224A2248043319
:1028D000FFF72CFE052301210093204A2048FFF733
:1028E00025FE0022022104201E4BFFF7A5FD002239
:1028F000012105201C4BFFF79FFD0022002107202E
:102900001A4BFFF799FD002200210820174BFFF713
:1029100093FD8023DB000093002200210920134B4C
:10292000FFF710FD0022104B00210620FFF784FD69
:102930000420FFF7F5FD0E4900F04CF801000020DF
:10294000FFF794FE02B010BD008000403CB0004094
:1029500030B00040002F685900800240008C86474C
:1029600000C00240001BB70040597307006CDC0236
:1029700040420F0001480421014B184780110020FC
:102980009D260010124A936F9B0815D29066D1665F
:10299000002905D0FFE7FFE7FFE7516F106F704791
:1029A00004B580210906C2175140002800D0C84351
:1029B0000FF022F9002104BDF0B5146E556E576F6B
:1029C000166FFFF7E3FF1466556657671667F0BD8D
:1029D000000000D0114A936F9B0813D21066516615
:1029E000002905D0FFE7FFE7FFE7516F106F704741
:1029F00004B5002801D00020C0430FF0FDF80021ED
:102A000004BDC046F0B5146E556E576F166FFFF7D4
:102A1000E5FF1466556657671667F0BD000000D0E5
:102A200094464A4A926F9208624601D228E0C04614
:102A3000F0B5464E346E756E776F366F00F020F845
:102A40009446424A14665566576716676246F0BD5B
:102A500094463E4A926F9208624601D254E0C046C4
:102A6000F0B53A4E346E756E776F366F00F04CF8F5
:102A70009446364A14665566576716676246F0BD37
:102A8000002B24DB11D000293EDA00B5C9434042B7
:102A900000D1013100F038F8C943404200D1013182
:102AA000DB43524200D1013300BD002AEBD10028A4
:102AB00001D1002905D00020C90FC90701D1C043A9
:102AC000410800B50FF080F80022002300BD00B5DA
:102AD00000290ADBDB43524200D1013300F014F835
:102AE000C943404200D1013100BDC943404200D139
:102AF0000131DB43524200D1013300F005F8DB43E2
:102B0000524200D1013300BD002923D1002B18D13E
:102B1000002A0CD0BC460D4F38667A66002100238F
:102B2000FFE7FFE7FFE77A6F386F674670470028D7
:102B300001D00748010000B50FF046F8002200233D
:102B400000BD02000B00002000217047000000D0F3
:102B5000FFFFFFFF002B00D0BFE0130C28D1002A9D
:102B6000E7D080B4114F39667A66FFE7FFE730B4EB
:102B7000040C7B6F396F1B0423433B667A66FFE7C7
:102B8000FFE7FFE7C04684B27B6F3D6F1B04234322
:102B90003B667A66FFE7FFE7C04600232C042D0C56
:102BA0007A6F386F00196941B0BC7047000000D0DF
:102BB000F0B594460025140E01D112020835140F09
:102BC00001D112010435940F01D192000235D40FC6
:102BD00001D152000135D40B0134254F7C66254CC0
:102BE0003C660E0C93B2FFE7FFE7FFE73C6F6643DE
:102BF000360C7703BE467343DF0B5B04C01AB94142
:102C0000130C7343DB18C91ACE086643360CB6445E
:102C100093B273431F0F1B01C01AB941130C7343C6
:102C20001F0B1B05C01AB941860D8F023E43664338
:102C3000360C092D24DB520A7243801A7703460AA8
:102C40006643360C16235B1BDE40DF40BF1964462B
:102C50006643821B7046043506330100D940A84004
:102C6000C01900D30131A24206D20023F0BD0000FA
:102C7000000000D0FFFFFFFF121B0130F3D3F1E78C
:102C800009277F1BFE406446A2B27243801A00D21D
:102C90000139220C7243130C1204821A99410B0061
:102CA0007046043513370100F940A840801900D35D
:102CB0000131002B02D1A2420AD2F0BD013000D373
:102CC0000131121BFAD2013BF8D1A24200D2F0BD71
:102CD000013000D30131121BF7E7F0B51C0C00D016
:102CE00080E00CB400251C0A04D11B02160E3343ED
:102CF000120208351C0B04D11B01160F33431201BD
:102D000004359C0B04D19B00960F3343920002358F
:102D1000DC0B02D192185B4101351C00971864410D
:102D20000134464F7C66464C3C660E0CFFE7FFE7DD
:102D3000FFE7C0463C6F6643360C7703BE4697B24A
:102D40007743C01B00D20139C01B00D201399FB2AA
:102D50007743C91BC91B170C77437E04FF0B801BED
:102D6000B941CE086643360C0C2D33DBB644120B4A
:102D70001F053A431B0B97B27743C01B00D20139A2
:102D80009FB27743C91B170C77433E043F0C801B4F
:102D9000B941860D8F023E43664329277F1BFE40C3
:102DA0000C3D7746AF40BF1930BCA2B2ABB2724304
:102DB0007343801A9941220C7243130C1204801A37
:102DC000994102000B000137001BA941F9D2781E7E
:102DD0000021F0BD0C277F1BFE4077467F0BAF40E4
:102DE000FF19E0E700245D1C07D0144F7D663966AB
:102DF000FFE7FFE7FFE7FFE73C6F95B29EB2654351
:102E00006643401BB141150C1E0C654366433604F6
:102E10002F0C3E432D04401BB141994204D20200C5
:102E20000B0020000021F0BD01D19042F7D3801AA1
:102E3000994101349942F2D3F6E70000000000D036
:102E4000FFFFFFFF48404140484018B41B4B5B6800
:102E5000FC46019308BD04DFFF30001018B4174B87
:102E60001B68FC46019308BD00DF09310010944641
:102E7000134A926F920809D2624618B40F4BDB686E
:102E8000FC46019308BD0CDFC13300100C4AF0B5BD
:102E9000146E556E576F166F6246FFF7EEFF084AC5
:102EA0001466556657671667F0BD18B4034B9B68E8
:102EB000FC46019308BD08DF65320010801B00202E
:102EC000000000D0FFB550404240504059404B40B8
:102ED000594000E0FFB5154F4C00640D03D0BC42D3
:102EE00004D10C0314D80020090D09055C00640D01
:102EF00003D0BC4204D11C030AD800221B0D1B05C1
:102F000001264B4009D44B4003D58B4200D182426D
:102F1000FFBD9942FCD19042FFBD0B43DB18034338
:102F20001343F5D0C9434918FFBD0000FF07000057
:102F300000B5FFF7CFFF01D0002000BD012000BD8C
:102F400000B5FFF7C7FF804100BDC04600B5FFF7E1
:102F5000C1FF01D9002000BD012000BD00B5FFF771
:102F6000B1FF01D9002000BD012000BD00B5FFF771
:102F7000A9FF804100BD012040054A00121804D875
:102F80005A00121801D80020704701207047000035
:102F90000021002805D17047C1174840401AFAD0D7
:102FA000C90713B5064B1B6898470CBC441CA240CC
:102FB0001005120B0349091B09051943114310BDE4
:102FC000603000201F04000010B54C00620D80230B
:102FD000D218DB00D21A5B057E2A10DD9E3A13DA86
:102FE000CC170903490819435242D1406400013407
:102FF0001532202A05DAD0400843604310BD002076
:1030000010BD0846604310BDC80FC018013810BD80
:1030100018B4044B5B6AFC46019308BD24DF71358C
:1030200000100000801B0020132370B51D78012DB7
:1030300019D014DD1F48FFF729FB06001E48FFF7D3
:1030400025FB1E4C80223100200000F06DFC022D7B
:103050002DD01B48FFF712FB1A4B186070BD1A4B9E
:10306000164CA364F5E7184B144C23606360A3600F
:10307000E36023616361A361E36123626362A3622E
:10308000E36223636363A363E36323646364A3640E
:10309000E36423656365A365E36523666366A366EE
:1030A000E36623676367A367E367A364D1E7064B1F
:1030B000A364CEE75344000053460000801B002069
:1030C0004C33000060300020CD30001007B5604662
:1030D00001880A0A0230DF2AFAD1C9B2820804D371
:1030E000028840880004104300E00068014A505004
:1030F000039007BD801B00200FB403BC0CBCF0B5CF
:103100000124E407634000E0F0B50C0DCF0F661E0C
:103110003605891B640503D3C943404200D30131FE
:10312000640D03D0661CF60A07D0E41B00207F0064
:10313000791C89078912803C24031D0DDF0F6E1E48
:1031400036059B1B6D0503D3DB43524200D301338D
:103150006D0D03D06E1CF60A07D0ED1B00227F0018
:103160007B1C9B079B12803D2D032F1B661B58D495
:10317000A446202E46DA20371400BC401D00BD4076
:10318000F24033412A4380185941CB0F05D0C9433F
:10319000C043002264425041514162464D0D28D146
:1031A0000D0D07D100281FD0241940414941013A93
:1031B0000D0DF9D0640006D3013000D30131002C8D
:1031C00001D140084000013A0BD4941CE40A04D118
:1031D00012051144DB071944F0BDD907204B1943F0
:1031E00000E0D9070020F0BD0029DDD1002CDBD1A3
:1031F000F0BD0132C6074008CD0728434908002E1C
:10320000E1D0D9E73C2E29DA203E40371400BC40FB
:1032100000D00124F24014431A00BB401C43D317D2
:10322000ACE7AC46202F08DA20360400B4400D008D
:10323000B540F84039412843A5E73C2F0CDA203F40
:1032400040360400B44000D00124F8400443080094
:10325000B1400C43C117EAE710001900002494E7BD
:103260000000F07FF0B50C0D661E3605891BE60ADE
:103270006405640D02D0651CED0A04D00020012114
:103280000905803C2403A4461C0D671E3F05DB1B7B
:10329000E70A6405640D02D0651CED0A04D0002223
:1032A00001231B05803C24037740644497B484B217
:1032B00096B27443070C7E43150C6F4380B268438B
:1032C000361802D3012000043F183004350C0019D1
:1032D0007D41844688B29AB250430C0C62431F0C65
:1032E0007C438EB27E43921902D301263604A41980
:1032F0001604170C3618674101BC81B29AB25143CB
:10330000040C62431B0C5C4380B25843121802D376
:103310000120000424181004130C401863412D18D8
:103320005E410020474106BC88B293B258430C0C62
:103330006343120C544389B251435B1802D30121F9
:103340000904641819041A0C091862416D185641D1
:103350000020474118BCF902720D1143F0026A0DBA
:103360001043ED020A0D03D16D1940414941013B63
:10337000124E9B1B7600B3420ED26D0007D3013074
:10338000002671416646354301D1400840001B05C7
:10339000C918E4072144F0BD0BDA013306D101302E
:1033A00004D101314F0D01D04908F2E7E1070020B7
:1033B000F0BD013631050020EBE70000FF030000FF
:1033C000F0B51C0D671E3F05DB1BE70A6405640DA5
:1033D00002D0661CF60A04D0002201231B05803CA3
:1033E0002403D0252D060026F6432E661E096E66A0
:1033F000CE0FF619B44649004F0D02D07E1CF60AD6
:1034000003D000200021403F3F033E1BB600B444E0
:10341000013F7F05C91B49082E6F013676089C02C3
:10342000950D25437543ED137543AD1301356D10AF
:10343000F603761B0CB4CC02450D2C43A2B2B3B2FA
:103440005A43270C7B43350C6F43A4B26C431B19C2
:1034500002D3012424043F191C041D0CA4187D412F
:1034600024196D41009A91B2ACB26143170C7C43B0
:103470002B0C5F4392B25A43A41802D301221204C8
:10348000BF182204230C52187B41019C6C431B196A
:10349000520ED9010A434401A01A81B2B2B251437B
:1034A00003145A43360C734387B27743D617D219A5
:1034B00000277E4136049B191704160C7F185E41C5
:1034C0007316ED18F301002680337541A90F06D15C
:1034D0006400690AE8055B0A184309D22FE0042258
:1034E000944480337541A90AA8059B0A184326D342
:1034F000404149412404009A019B0D005543641B3F
:103500004343E41A95B286B27543170C7E43030C0D
:103510005F4392B25A43B61802D301221204BF1875
:103520003204330C52197B4152429C41002C02D48C
:103530000022013051414008CA071043490802B037
:103540006246D7079210084BD218084B9A4203D212
:1035500012058918C919F0BD0020002A01DC3900C4
:10356000F0BD01331905F5E7FD030000FE0700007B
:10357000002200B5203200F004F8080000BD000071
:1035800000220B150AD410B5944600F031F814143B
:10359000013400DA0021CB17144C20470020002111
:1035A00070476244343A0CD40C2A07DA0400914084
:1035B000904052422032D440214310BDD843D943D9
:1035C00010BD203207D40C469440524220321141A3
:1035D000D040204310BD0800C917203203D4524206
:1035E0002032104110BD1800190010BDA335001085
:1035F0000A0DCC0F531E1B05C91A520503D3C9432C
:10360000404200D30131520D03D0531CDB0A07D0D6
:10361000121B00206400611C89078912803A120382
:10362000014BD21A70470000FF030000514343438F
:10363000C9188C46110C83B24B4310B4040C61437F
:1036400092B280B2504362431C041B0C001910BCA0
:1036500059411304120CC0185141614470470000D5
:103660004840414048400E4B5B6818470C4B1B6874
:1036700018470C4A936F9B0802D2094BDB68184726
:10368000F0B5146E556E576F166FFFF7F6FF054ACB
:103690001466556657671667F0BD014B9B6818475F
:1036A000801C0020000000D007B548404140484041
:1036B00001E0C04607B54200120E03D0FF2A03D135
:1036C000420218D8C00DC0054A00120E03D0FF2ACE
:1036D00003D14A020FD8C90DC9050122414005D4C2
:1036E000414001D5814207BD884207BD01434918C9
:1036F00001D0C043001807BD00B5FFF7D5FF01D9C1
:10370000002000BD012000BD491A002808D108464C
:1037100070470000C10FC90700D54042002817D0EC
:10372000F44603B40B4B1B68984706BC81409E3897
:103730004042803107D20B0607D04900490AC00534
:103740001043084360470130F8E7490A8902F5E76A
:103750007047000060300020034BDB6FFC461847C9
:103760007CDFFD3700100000801C0020132310B503
:1037700012481C78FEF78AFF0100012C0AD003DDF5
:1037800080220F4800F0D0F80E48FEF777FF0E4B6E
:10379000186010BD0A4C5422200000F0C5F80B4BF5
:1037A0006365A365E36523666366A366E3662367D3
:1037B0006367A367E3672362E361E5E753460000BD
:1037C000801C00204C33000060300020D1370010F6
:1037D00007B5604601880A0A0230DF2AFAD1C9B269
:1037E000820804D3028840880004104300E0006887
:1037F000014A5050039007BD801C0020C30FDB0717
:1038000041000A0E07D0FF2A08D00909054A891885
:103810001943400770471900002070470249C91832
:10382000FAE70000000000380000F07F70B50400E7
:103830000A4E30000EF020FA200008F0AFF8050024
:1038400030000EF0B9F9002D05D0054B2C199C4223
:1038500001D8280070BD0348FDF742FC3419002050
:10386000000004202C1E0110F8B506000C000C4FBF
:1038700038000EF001FA2100300008F02FF80500A2
:1038800038000EF099F97443002D05D0054B2C1922
:103890009C4201D82800F8BD0348FDF721FCC04632
:1038A00034190020000004202C1E011070B5050002
:1038B0000C000B4E30000EF0DFF92800210008F05C
:1038C00077FB050030000EF077F9002D05D0054B91
:1038D0002C199C4201D8280070BD0348FDF700FC5C
:1038E00034190020000004202C1E011070B50400C3
:1038F000054D28000EF0C0F9200008F059F8280006
:103900000EF05AF970BDC046341900200148042158
:10391000014B1847901100209D260010014B1B6899
:103920001847000090110020014B5B681847000009
:10393000901100209A4200D2885470477047C046C8
:10394000F8B55746DE464E464546E0B599460A9BD1
:1039500007009A460D9B884693460B9C9B073BD1DC
:103960000C9B9C423DD21E1B0B9415000C005E4428
:103970002A004B46013521002020B847B542F7D137
:10398000A0460B9C002C20D0454636195346321BCE
:10399000013C185D29004B46B847002CF6D12B009E
:1039A000350098460D9B9B070FD55B46EC1A0C9B88
:1039B000A3420AD9464698462A004B4631002020A9
:1039C0000134B84701354445F6D32800F0BCBB4666
:1039D000B246A946A046F8BD16001500002CD3D16A
:1039E000E0E716001500002CCED1EEE7F0B5454615
:1039F000DE4657464E46E0B585B09C4610AB1B7878
:103A0000149F934698460F9C129E139DBB074CD45F
:103A1000002D42D1B44248D201233B4099460E9B2F
:103A2000013B9A46302304E0524601341355A64226
:103A300001D9202CF8D14B46002B00D183E00E9BFE
:103A4000013B99463023A54205D82EE04A46013471
:103A50001355AC4229D0202CF8D1FB060CD57B05A0
:103A600054D4A64263D0A54261D0119B102B50D0F4
:103A7000022B57D0202C32D1202301930E9B5A4683
:103A80000093039763460295FFF75AFF05B0F0BC19
:103A9000BB46B246A946A046F0BD01233B4099462D
:103AA00001233B422AD1B442B9D3FB061CD57B0586
:103AB000DBD4002CD5D1119B102B5BD0119B022B9A
:103AC0006BD0302301240E9A13704346002B10D183
:103AD0007B073ED52B260E9A631C1655CDE7230097
:103AE000013430260E9AD654202CC5D04346002BE4
:103AF000EED02D260E9A631C1655BEE74346002BCA
:103B00002FD0013DB44200D289E798E7119B102BDA
:103B1000B2D1BB0637D5202CAED058230E9A135500
:103B20000134A7E7202CA7D02300013407E0631E4F
:103B3000012CC0D0119A102A31D0022AD1D162268C
:103B40000E9AD65496E7FB06CED57B0500D488E7BF
:103B50008BE723003E0790D520260E9A0133165599
:103B60008BE70C233B405A1E9341ED1AB44200D21E
:103B700055E764E7BB060ED478230E9A022413702F
:103B800030235370A1E7202C00D175E778230E9ADB
:103B9000135501346EE75823EFE76033EDE70E9AD3
:103BA000A61E91464E44BA0602D55822327098E7B6
:103BB0007822327095E7C04610B5002800D110BDBC
:103BC00001F064FDFBE7C0460B0010B5002802D0F1
:103BD00049681B68984710BDF0B55746DE464E460B
:103BE0004546E0B595B083460F00924698461E9A2A
:103BF0001F9B10001900209EFFF7BDF9002800D080
:103C0000EAE11E981F990122C54B5242FFF798F92D
:103C1000002800D014E11E981F990122C14B524286
:103C2000FFF7A4F9002800D0E9E01E981F990022B0
:103C3000BD4BFFF79BF9002800D0C8E01E981F99E4
:103C40000022BA4BFFF77CF9002800D0BFE01E9895
:103C50001F9900220023FFF773F9002800D0E4E049
:103C600000230B93229B5B0500D4062600243023FF
:103C700007E0172106AA013452181355013E202CE3
:103C800001D0092EF5D81E981F99FFF79DF9A84B72
:103C9000F2009B181A685B68050008920993FFF709
:103CA0007BF902000B001E981F99FFF7CEF8089AC7
:103CB000099BFFF7FAF806900791FFF7A9F98146EB
:103CC000FFF766F902000B0006980799FFF7BDF8A9
:103CD0000022984B06900791FFF748F9002800D181
:103CE0000DE101239C46E1444846FFF751F90200EB
:103CF0000B0008980999FFF729F9002802D0002342
:103D000099460135002E00D1D9E006954D46B946B9
:103D100014E006AA944617230A21634428000134BC
:103D20001F19FEF757FE3031397028000A21013E75
:103D3000FEF750FE092D00D817E10500202CE8D130
:103D40004F46069D20240CAE06AA172394466344D2
:103D500099465B46B34606930FE04B4628000A217E
:103D60000134E618FEF70EFE3031280031700A21CA
:103D7000FEF708FE051E00D1E4E0202CEDD1069BE5
:103D80005E469B460323229A1340012B18D1219BA8
:103D9000002B15D00B9B002B00D1FDE0219B013B9C
:103DA0002193202B0CD93023219A07E0172006A954
:103DB000013409180B55944200D3CCE0202CF5D1E6
:103DC000229B01940393219B0096029322E0229B65
:103DD00052460493219B3900039358461E9B1F9C17
:103DE000029600930194434600F04AF90400200033
:103DF00015B0F0BCBB46B246A946A046F0BD229B1A
:103E00005B070FD403224C4B229901920391219915
:103E1000009302914346524639005846FFF790FD01
:103E20000400E4E70422454BEEE71E9A1F9B0020A6
:103E30000021FFF70AF801231E901F910B9311E751
:103E4000229B54469B0711D1219B042B0ED9219B09
:103E500055469C465E46043C64442A004346013570
:103E600039002020B047A542F7D1B346344D260093
:103E70002B1F99465B46A3461C003200E878434658
:103E80003900013DA04701364D45F6D123005C467F
:103E90009B46229B04349B07A9D55346219AE31ADB
:103EA0009A42A4D95E4615002200434639002020DC
:103EB000B04753460134E31A9D42F5D897E72800EE
:103EC000FFF76AF802000B001E981F99FEF7BDFF6E
:103ED0000022184B06900791FFF732F80CAE00282D
:103EE00000D031E7069807990022124BFFF73EF801
:103EF000002800D028E7012301359D4324E7002254
:103F0000069807990B4BFFF71BF8002800D0F9E63D
:103F10004B46002B5CD101239C46E144F2E6C046AF
:103F2000FFFFEFFFFFFFEF7F65CDCD4165CDCDC139
:103F3000802A01100000E03F781E0110701E011061
:103F4000801E0110069B5E469B460323229A134067
:103F5000012B00D181E0202C00D131E70B9B002BFD
:103F600027D02D23335501342AE74F46069D202CB8
:103F700000D1E7E63022331907E0172006A9013403
:103F800009180A55202C00D1DCE6A342F5D12E22D7
:103F90000CAE0134F254D7E60C23229A134257D0C8
:103FA000219B013B2193A34200D9FCE6202C00D1A8
:103FB00006E7229B5B0703D52B2333550134FFE62D
:103FC000229B1B0700D4FBE6202333550134F7E680
:103FD000DB0700D496E69EE7229B55469B0711D14E
:103FE000219B032B0ED9219B54469C465E46033DE4
:103FF000654422004346013439002020B047AC42DA
:10400000F7D1B346B9465F461C4EEC1C2A00B07887
:10401000434649460135B847013EAC42F6D1229BA2
:10402000BB464F469B0700D4E1E65346219AE31A6C
:104030009A4200D8DBE65E4615002200434639006E
:104040002020B04753460134E31AAB42F5D3CEE605
:10405000219BA34200D9A6E6B2E6219B002B00D10A
:1040600079E70B9B002B97D0219B013B21939C422E
:1040700000D298E6202C00D073E7A1E67C1E011048
:10408000F0B5DE4657464E464546E0B599B0814606
:104090008B4692469846229A239B10001900FEF701
:1040A0006AFF002800D0CAE0229823990122824B9F
:1040B0005242FEF75BFF002800D0C0E0229823990F
:1040C00001227E4B5242FEF73BFF002800D0B6E0B3
:1040D0002298239900220023FEF732FF002800D007
:1040E000C9E1229B239C089309940898099980238D
:1040F000269ADB001A400D928022269C1201144061
:1041000022000B94269C07000E001C4200D0ADE05C
:104110000B00034300D0D5E0002A00D00AE22200C1
:1041200006332493022313400C930223134200D03E
:1041300002E2259B042B00D20FE2043B0B930023E9
:1041400004250A930022229823990023FEF7F8FE03
:10415000002800D003E25A4B269A134004930B9B8D
:104160000393249B0293089B099C00930194594656
:10417000434652464846FFF72FFD02002020269B6B
:104180001F27034059424B415B421840531C089380
:10419000594643464530C8470A9AD317D4185C405D
:1041A000D30F0A936B1E0B9308AB9C460025674404
:1041B00001E0202D0FD020000A21FEF70BFC013575
:1041C0007E193031317020000A21FEF703FC2600F1
:1041D0000400092EEDD8052306930B9B5946059341
:1041E000002304930A3303930A9B4846029310ABBF
:1041F0000093089A43460195FFF7F8FB0C9B002BB0
:104200002DD05346C41A259BA34228D94D465F465C
:1042100081461E00534639001A19202043460134B6
:10422000A847A642F6D8534648462599C21A0132F5
:104230000023914200D386E1013018180FE0269B3D
:104240000493259B0393249B0293229B239C00931E
:1042500001944346524659464846FFF7BDFC19B003
:10426000F0BCBB46B246A946A046F0BD01432BD1E7
:104270000B9B2200002B00D154E700230A93249BC0
:104280000A9A0024934200DD85E1229823990022B6
:104290000023FEF755FE002800D035E1269B084A92
:1042A00002941A408023DB0013430493259B03935D
:1042B000089B099CCBE7C046FFFFEF7FFFFFEFFFA6
:1042C000FFF7FFFF06232493B44B70009C46400D7C
:1042D0006044FEF761FEB24AB24BFEF7E6FDB24A19
:1042E000B24BFEF7BBFD3603B14B360B3343040034
:1042F0000D00380019000022AE4BFEF7A6FDAE4AB5
:10430000AE4BFEF7D2FD02000B0020002900FEF7A5
:10431000A5FDFEF759FE0A90FEF73EFEA84AA94BFE
:1043200004000D00FEF7C1FD0022A74BFEF796FD2D
:10433000FEF74AFEA54A0600A54B20002900FEF71D
:10434000B4FD040030000D000C96FEF725FEA14AD6
:10435000A14BFEF7AAFD02000B0020002900FEF78A
:1043600074FD02000B0006000F00FEF79EFD3200F8
:1043700004000D003B0030003900FEF76FFD002205
:104380000E900F91954B20002900FEF770FD002242
:10439000934BFEF763FD02000B0020002900FEF79F
:1043A00066FD00228F4BFEF759FD02000B00200036
:1043B0002900FEF75CFD0D008021040032003B0067
:1043C0000020C905FEF741FD02000B002000290076
:1043D000FEF744FD02000B000E980F99FEF747FD13
:1043E0000022734BFEF73AFD7F4B0C9C9C466444C5
:1043F00000222305FEF759FD06000F0002000B0006
:1044000008980999FEF79CFD00280AD00A9B300005
:10441000013B39000A930022714BFEF728FD06008C
:104420000F000A9A330063323900C62A12D80222DA
:104430002698042510400B9A0C90002A25D1259B24
:10444000042B05D9002800D0A1E0259B043B0B9349
:10445000042541E00222269810400B9A0C90002A75
:1044600012D1259B052B76D9002872D1259B0525D5
:10447000053B0B9334E0802212069446229B08935E
:10448000239B6344099330E605250B4300D1F6E6F0
:1044900008980999554A564BFEF760FD002808D048
:1044A000089809990022534BFEF74AFD002800D0D6
:1044B000E5E6249B002B1CD00D9B002B19D0249BE0
:1044C000013B2493259BAB4204D90C9B002B5AD073
:1044D00002230C9300230B930A9B002B00D131E69F
:1044E0000898099932003B00FEF7C1FC0890099139
:1044F00028E6259BAB42EDD90C9B002B43D0002333
:104500000B9302330C93E7E78020269B3A4A000680
:104510001A40802384460294089C099D2900DB00F0
:1045200013430493259B6144220003930B000092E4
:1045300001938EE60524A8E600230B930A93023329
:1045400004250C93FEE553468C46013B63441B1A3D
:1045500072E602230C930525C2E70423EDE58020D3
:10456000089E099F000639008446269A224B614422
:10457000134004930B9B32000393249B02930B0084
:1045800000920193F3E5259B5B1B0B93A4E70223A9
:1045900004250C93A0E79C1A013C76E601FCFFFF82
:1045A000FB799F501344D33FB3C8608B288AC63F22
:1045B0000000F03F0000F83F61436F63A787D23FE0
:1045C00071A379094F930A400000E03F1655B5BB2F
:1045D000B16B0240EF39FAFE422EE63F00002C405C
:1045E0000000244000001840FF0300002D431CEB96
:1045F000E2361A3F80842E41FFF7FFFFF0B5DE461A
:1046000057464E464546E0B5A5B01E002E9B924645
:104610000C93CD4ACD4B80468B461A60002900D1C1
:10462000EAE1002330789946002800D1ECE1C84B3C
:104630004C460B93C74B454657460E930AE0631C06
:10464000984622003B005946A84744463078002847
:1046500000D187E001362528F1D108239A46043B92
:104660009946023B9846013B00229C460D943078C7
:10467000711C0300203BDBB2102B03D80B9C9B006A
:10468000E3589F460300303B89460D9C092B3AD9DD
:10469000002398462A2800D1C1E000239A462E28FC
:1046A0004BD00300683BDBB2122B1ED80E999B0047
:1046B000CB589F4663460E001A43D8E743460E0088
:1046C0001A43D4E74B460E001A43D0E710230E00DE
:1046D0001A43CCE753460E001A43C8E780235B0019
:1046E0001A43FF3B9C467078E1444E4667284FD8FA
:1046F0002428A4D90300253BDBB2422B9FD896493E
:104700009B00CB589F46002394461E0000E00131D9
:10471000B3009B195B001E180878303E0300303B45
:10472000092BF4D90123624689469C460023B046F2
:104730009A460E00E1442E28B3D130218020494210
:104740008C46C000024370784B4684446146092978
:1047500000D86CE12A2800D17AE101239C464E461C
:10476000E1449EE7A146A846BA46CA4503D80123BC
:104770005B425344994653464A4659460020C04737
:10478000200025B0F0BCBB46B246A946A046F0BD0D
:104790000300693BDBB20D930F2B00D94FE70121DA
:1047A00099408C466D49894661464B4619400F91A8
:1047B000634649460B4200D028E10D9B0A2B3AD0B4
:1047C000072B00D03BE70C9B190008C98846002B3B
:1047D00000D14BE121200243914614A98C461F22AF
:1047E0000F2162448C4651460D950C91A24615004E
:1047F0000F9902E020290CD0130064461C402000D1
:104800003730092C00D80738013168541A090F2BAA
:10481000F0D80C9B54460D9D9A460F9133E10C9BAA
:1048200002CB8846002947DB0C9301239C46707815
:104830004E46E14431E70C9B02CB14935346002BC8
:1048400000D138E19C4608780B000C908C4400287D
:1048500001D100F098FC89466146944603E05A78FD
:104860000133002A01D08B42F9D1494662465B1AD6
:104870000C900F93530500D520E10223180010403F
:104880000D90134200D1CBE30D930B1BB1469A461A
:104890005E460C9822003B003100A8475346013485
:1048A000185D0028F6D1B3464E460D9B002B00D074
:1048B000C7E1149B0C93C9E60C9301239C4628384E
:1048C00049420243884670784E46E144E5E67078F6
:1048D0006C2800D17FE180235B001A43FF3B9C469C
:1048E000E14402E780239B001A4301239C46707831
:1048F000E144FAE67078682800D173E180231A4316
:104900007F3B9C46E144F0E6672800D103E147285D
:1049100000D15AE1452800D15AE1049207214246CC
:104920000C9B0392073352468B43190002920CC929
:104930002800009201930C9122003B005946FFF79A
:104940009FFB040082E6C046FD45001018300020A1
:10495000E428011028290110742901104190000059
:10496000462800D1DBE00492072142460C9B0392CB
:10497000073352468B43190002920CC9280000925B
:1049800001930C9122003B005946FFF725F90400E2
:104990005CE6631C984622003B0059462520A84748
:1049A000444653E60C9B04330D93631C99469207CF
:1049B00000D422E10C9B2200187859463B00A847FE
:1049C00043464444012B00D885E23300B8462E000C
:1049D0005F4625004C469946220043460134390083
:1049E0002020B047AC42F7D12C00BB4635004746EB
:1049F0004E460D9B0C9329E6DB4B307898460023FE
:104A00009946002800D012E60024AEE66F2800D1B7
:104A100088E000D80BE31023782800D1CFE09A4338
:104A20000A239C4600230F930A330D9380E05646D9
:104A3000B1008919490001330E181878303E010081
:104A400030390929F4D9B2461E000133994628E6C7
:104A50000C9B023602CB8A46C9435046C917084010
:104A600082460C933078731C99461AE61023100086
:104A7000984311331843814680201300C00003403F
:104A8000024200D1A9E64B460693082305935346FC
:104A9000049310230393002302930F9B220001939E
:104AA0001CAB009359463B002800FEF79FFF43468E
:104AB00004000C93CAE501235B42C3E60F9B5345F8
:104AC00001D953460F930223180010400D90134252
:104AD00000D1B7E10D93D1460B1B9A463300A14498
:104AE0002E0022004D460C98B9465F469B4608E0D2
:104AF0004B463900541CB0475346185D002877D008
:104B000022009542F4D15B46BB464F46A94635008C
:104B10004C461E00C9E680231B011A43FDE62023F4
:104B20001A4320E708239C4600230F9308330D9374
:104B300080231100DB0019401A4200D116E10D2339
:104B40009A431000802302009B001A4014921842DE
:104B500000D0C2E1802302005B001A4091460C9A0B
:104B600004320F92184200D0B7E2430600D59FE10D
:104B7000030600D419E30C9B1B880993002B00D07B
:104B8000FCE110339843002900D1F7E10023994656
:104B900043460593534604930D9B069003930023CD
:104BA000D2E0582808D0622867D102239C4600230F
:104BB0000F9302330D93BBE720231A43103B9C460F
:104BC00000230F9310330D93B2E780231B011A4388
:104BD00020231A43A1E6C0239B001A43F31C9946E5
:104BE000B07882E5C0231A43F31C9946B0787CE57F
:104BF00035005E46BB464F4657E64346012B00D87C
:104C000063E1631E43449A463300B9462E005F4673
:104C100055469B46A24622004B46013439002020CF
:104C2000B047AC42F7D135005E46BB464F46A14681
:104C300054460C9B4A46187859463B004444A847C2
:104C4000D7E6A1460F9B984500D832E64444E41AC3
:104C50003300B8462E005F4625004C469946220098
:104C60004346013439002020B047AC42F7D12C0034
:104C7000BB46350047464E461BE680231000DB004E
:104C800018401A4200D10FE1112118008A430D92F9
:104C90000D9A802311009B0019408C461A4269D15D
:104CA000802311005B00194089460C9904310F9153
:104CB0001A4200D0CAE113005B0600D5F0E01300F1
:104CC0001B0600D459E20C9B00229B5ED9175A1890
:104CD0004A4092B2D90F0C91002B00D1F9E110009B
:104CE00014AA944642461F23149252466344A8468F
:104CF00016944D460400B946B2461F00159201E0D5
:104D0000202D0FD020000A21FDF764FE01357E1909
:104D10003031317020000A21FDF75CFE26000400CE
:104D2000092EEDD8149B4F46A94645469846159B3B
:104D300056469A46169C0D9B06934346059353464A
:104D400004930A2303930C9B02934B4601931CABE1
:104D50002200009359463B002800FEF747FE0F9BB8
:104D600004000C9372E4C0463D3900100C239A43B2
:104D70001000E7E607220C9B073393430132944669
:104D80009C4462460C920CCBD90F0F911100194331
:104D900000D191E0D91713911291514010911399BC
:104DA0005940119110981199129A139B801A9941A8
:104DB0001090119114AA00239446424699461492E9
:104DC00052461F336344A846B24616944E46109C82
:104DD000119DB94615921F0001E0202E10D0200031
:104DE00029000A220023FDF733FE013630322B0062
:104DF000BA550D0022000400002BEED1092AECD890
:104E0000149B1094119545469846159B4F46B14604
:104E100056469A46169C0D9B069343460593534669
:104E200004930A2303930F9B02934B4601931CABFD
:104E30002200009359463B002800FEF7D7FD0400EE
:104E4000FFF704FC0F9B984500D8C1E18023DB00ED
:104E50000D9343460F9A1B199B1A994633002E0057
:104E60004D46B9465F469B460C9122004B460134A5
:104E700039002020B047AC42F7D143460C990133AA
:104E80000F930B7835000C935E46BB464F46002BC4
:104E900000D10EE50D9B002B00D1F6E4002319E6AE
:104EA0000C9B1B781A0015E710239A430D92EFE62E
:104EB0000C9B1B78099361E6002399460028AAD130
:104EC000002200231092119374E70C9B22001878A3
:104ED00059463B00A8474C468BE50C9AFA3BFF3BF2
:104EE00007329A430133994691444B460C93136819
:104EF000526815921A4306D110329043002209924B
:104F0000002900D081E06122810600D54122D2B281
:104F10000A9214AA91460A9A00210A3A1492424629
:104F20001792524618925A460991B3461F311E00F5
:104F30000F9B4944BA4619941A950024674698462F
:104F40008946159D16901B920AE03032D2B24B462C
:104F500001341A55A8454AD0202C4AD006000D002D
:104F60003A00002330002900FDF772FDD2B2092A71
:104F7000EBD9149B9C466244D2B2E8E761238206D7
:104F800000D54123DBB20A3B0C93434614A91F22F0
:104F90008C46159353466244A046B2464C4617973A
:104FA000A9461700099D0D9E1490169308E0303312
:104FB000DBB201343B55B5420ED3202C0CD005009A
:104FC00031002800FDF706FDCBB20929EFD90C9A74
:104FD00094466344DBB2ECE7159B4D46A14644463C
:104FE0009846169B564614989A46179FD0E5B742A6
:104FF000B2D9179B57469846189B5E469A461B9B0C
:1050000009949B461698199C1A9D4346059353464E
:1050100004930D9B0690039300230293099B05E7DD
:105020000F9B984500D914E701330F932DE410230B
:10503000110099430D91692800D0BAE08023100037
:10504000DB0018401A4200D122E61DE60C9B1B68CB
:10505000DA0F1100002B00D18CE0DA1798185040BD
:1050600014AA914642461F23149252464B44A0462E
:10507000A946169704006546B2461F000C9115928A
:1050800001E0202D0FD020000A21FDF7A3FC0135FF
:105090007E193031317020000A21FDF79BFC26007B
:1050A0000400092EEDD8149B444698460C9BAC4650
:1050B0001900159B56464D469A46169F0D9B029128
:1050C000069343460593534604930A23039363468A
:1050D0003CE6002800D02EE602E60C9B1B689946B1
:1050E000002B03D110339843002938D16123820665
:1050F00000D54123DBB20A3B0C934346169353463B
:1051000014A91F228C4617932B006244A0464D46DB
:10511000B246189799461700149C0D9E159008E00A
:105120003033DBB201343B55B5420ED3202C0CD0CA
:10513000050031002800FDF74DFCCBB20929EFD95D
:105140000C9A94466344DBB2ECE7169B14944446F5
:105150009846179B56464D469A461598189F4346C3
:105160000593534604930D9B0690039300230293EB
:10517000149BEBE50028A1D172E70C9B1B68D917A3
:105180005A184A40A6E580231000DB0018409C46D0
:105190000F901A420FD00220030013400F931042C9
:1051A00019D00023A1460F934CE50C9B1B68099373
:1051B000E4E40A0034E40223180010400D90134286
:1051C00000D03EE54346002B00D042E6FFF771FBDE
:1051D00001330F937FE463460D93F3E70CB430B5CE
:1051E00085B008AC08CC064D0A00009401002800E8
:1051F0000394FFF703FA05B030BC08BC02B01847AF
:105200003539001010B50C0084B00394012402A9B4
:1052100002900093034813006242FFF7EFF904B0D5
:1052200010BDC046C93B00100FB430B50C4985B065
:1052300008AA08CA0D680392002D0CD00092012222
:10524000084C5242200002A9A847012005B030BCFA
:1052500008BC04B01847180000F062FA0020F5E717
:1052600018300020B93B001010B5094A030014683B
:1052700084B0002C08D0012200910648524203A9B4
:10528000A047012004B010BD00F04AFA0020F9E761
:1052900018300020B93B001000BEFDE7094A0300AA
:1052A0001068002805D00849C3188B4207D813603E
:1052B000704706480449C31810608B42F7D9012093
:1052C0004042F5E70C2C002000000420A030002014
:1052D000030010B508001100002B05D1044B1A681B
:1052E0005B6800F071F910BD01204042FBE7C04649
:1052F000882801100300013B10B508001400012BA1
:1053000006D801230022210000F0E0F8200010BDA3
:1053100001204042FBE7C046012040427047C046A2
:10532000012040427047C046012040427047C046BD
:105330000300022200209A424041704710B5FFF757
:10534000ABFFC04630B50D0083B01900002A0BD06A
:10535000074B084C0192009302002B002000FFF73E
:1053600063FF0120FFF798FF034B1A00F1E7C046E7
:10537000881E0110981E0110B420011070B5FDF7B1
:10538000DDF9074D074EB54209D20024013E761BD8
:10539000B60808CD984723000134B342F9D170BD57
:1053A000E41C0110F01C0110030010B508001100EE
:1053B0001B68984710BDC046F0B5C64600B5437D92
:1053C00007000C001600002B46D0002A17DD0B78D2
:1053D0000A2B24D000239846012E13D00125290042
:1053E000635C01350A2B26D0B542F8D1464509DC6D
:1053F000A419013C23780D3B5A4253413B7580BCB4
:10540000B846F0BD4346E018A419F11A013C3B68C8
:10541000984723780D3B5A4253413B75EFE7037D94
:10542000002BD7D102210F483B689847012EDFD0CF
:1054300001239846D2E7631E5B5C0D2BD4D08845D0
:1054400004DA4346C91AE0183B6898470221054828
:105450003B68A8469847C7E70368110020009847B3
:10546000CDE7C046D02A0110F0B5C6460B6806004D
:105470000C0000B5802B06D05A1C2260E41826715F
:1054800080BCB846F0BD0F4B1D68002D16D00B1D1B
:1054900098460D4F02E02D69002D0FD02B68002B90
:1054A000F9D03B68002B01D0AB42F4D12800414633
:1054B0002268FFF781FF2D69002DEFD10122002323
:1054C000DBE7C046FC2B0020082C0020F0B5454649
:1054D000DE464E465746E0B583B091461C008046F6
:1054E0000D00FCF751FE0023304A12184B41002BEF
:1054F00002DA01222E4B52422E4908008A460CF055
:105500009BFB07006B1C03D140460AF0F3F8050033
:10551000002C27D0284E294B1C68002C18D04B4655
:10552000002B21D1264B994602E02469002C0FD094
:105530002368002BF9D04B461B68002B01D09C42FE
:10554000F3D120002A004146B0472469002CEFD156
:10555000002F26D1280003B0F0BCBB46B246A946B6
:10556000A046F0BD174ED6E7154B99460A239B4639
:1055700002E02469002CEBD02368002BF9D04B46C5
:105580001B68002B01D0A342F3D12A004146200022
:10559000B0476B465A462000DA71D91D0122B04748
:1055A000E7E750460CF008FBD4E7C04640420F0046
:1055B000FFFFFF7F3C190020B9530010FC2B002097
:1055C000082C0020A9530010F8B557464E46454612
:1055D000DE4698461A4BE0B59B461A4B07000E0074
:1055E00091469A46184D5B461C68002C03D115E085
:1055F0002469002C12D02B68002B01D0A342F7D1D4
:10560000A368002BF4D03100380098470028EFDD64
:10561000F0BCBB46B246A946A046F8BD53465B6AFD
:10562000984508D85246926A4A4502D30220404221
:10563000EEE79845FAD101200021FCF7AFFDD2E753
:10564000FC2B002000400540082C00200A4A13686B
:10565000002B05D10CE01A001B691032002B07D07B
:105660008342F8D1002902D118691060196170478E
:105670000029FCD01060FAE7FC2B002010B500F0E8
:10568000ADF900F0E9FB012010BDC046F0B5CE46F3
:10569000474680B583B06B460600DD1D2870FCF7D9
:1056A00073FD0023194A12184B41002B02DA012224
:1056B000174B52421749080088460CF0BDFA164BAA
:1056C00081461C68002C14D0144F02E02469002C81
:1056D0000FD02368002BF9D03B68002B01D09C42EF
:1056E000F4D1200001222900FFF766FE2469002C76
:1056F000EFD14B46002B05D1300003B0C0BCB946FA
:10570000B046F0BD40460CF057FAF5E740420F00B6
:10571000FFFFFF7F3C190020FC2B0020082C0020FD
:1057200070B5040009F0E6FF012301000500012225
:105730002000FFF7CBFE084B1C68002C06D06368E6
:10574000002B05D098472469002CF8D1280070BDA3
:105750002469002CF3D1F9E7FC2B0020F0B5CE46EC
:10576000474680B5A3B004000D00FCF70DFD0023F3
:10577000274A12184B41002B02DA0122254B5242D4
:10578000254E30000CF058FA002322000193070048
:105790002B00224801A9FFF735FD214B8046994691
:1057A0001C68019B002B1AD0002C2FD01D4D02E04D
:1057B0002469002C0FD02368002BF9D02B68002B14
:1057C00001D0A342F4D12000019A02A9FFF7F4FD11
:1057D0002469002CEFD14B461C6800230193002C58
:1057E00006D06368002B0BD098472469002CF8D1B1
:1057F000002F07D1404623B0C0BCB946B046F0BD2B
:105800002469ECE730000CF0D7F9F3E70194EFE7F7
:1058100040420F00FFFFFF7F3C1900206954001039
:10582000FC2B0020082C00200FB400B583B004A985
:1058300001C90191FFF792FF03B008BC04B01847FB
:10584000F0B5002915DD0E4B0D271A680D4B0E4CD7
:10585000D3185D426B41451820215B001E5F047820
:10586000A64207D093691942FCD101301460A842C6
:10587000F5D1F0BD93691942FCD11760F2E7C0463B
:10588000743000200080FCBF70300020204B70B5C9
:1058900004000D1E1E682ADD002010211D4B013C56
:1058A0001A689369194214D1013093691942FCD1E5
:1058B000136823548542F4D1002E08D050239363FB
:1058C000516B183B0B4014498C466244136028000E
:1058D00070BD002E08D050239363516B183B0B40D2
:1058E0000D498C46624413600028F1D10CE0002E73
:1058F0000AD05022074B1B689A63596B183A0A402A
:1059000005498C4663441A6003204042E0E7C046E4
:105910008C2700207430002034100000064B10B596
:105920001B68002B06D00021044A12689163044AC8
:105930001068984710BDC0468C27002074300020A6
:10594000942700200822034B19688B691A42FCD166
:105950007047C04674300020F8B51A4F1A4B3A68A9
:105960000500D31858424341184E14331C003368C5
:10597000002D02D0002B0FD0F8BD002BFCD0002151
:1059800020009563FBF768FC20001149FBF7C0FD80
:10599000104B35601D60EFE70E4B200019600C497D
:1059A0003560FBF791FC01212000FBF755FC5022EC
:1059B0003B689A63596B183A0A4007498C4663441E
:1059C0001A60D9E7743000200080FCBF8C270020CB
:1059D0001D59001094270020341000000D4B10B505
:1059E0001B780D4B0D4C1B780D4B02211B780D4B7A
:1059F00000202360FBF720FB02210120FBF71CFBAA
:105A0000E12120684902FCF70DFC01210648FFF75F
:105A10001DFE10BD3C5E0110385E01107430002088
:105A2000345E011000400340A01100207047C046C2
:105A30000022014B1A707047983000204B790020EB
:105A4000FF2B0BD18B79002B08D1CB79012B05D102
:105A5000082A03D9024B8A7809301A707047C04669
:105A6000983000200120704710B5012913D1124948
:105A70005379107909781B0203430020994200D022
:105A800010BD5378012B08D0022BF9D164220021DC
:105A90000020FCF79DFD0120F2E7D37891781B02EE
:105AA0001943480ADB0501D4012040427F238A05BF
:105AB000D20F1940FCF714FE9830002000487047C0
:105AC000B82B011070B5050014000120012909D17F
:105AD00053780020012B05D1637912791B021343FF
